:0A0000000C9414010C9400000C9401
:10000A0000000C9400000C9400000C9400000C9466
:10001A0000000C9400000C9400000C9400000C9456
:10002A0000000C9400000C9400000C9400000C9446
:10003A0000000C9400000C9400000C9400000C9436
:10004A0093010C9400000C9400000C9400000C9492
:10005A0000000C9400000C9400000C94000010277F
:10006A00E80364000A00010000100001100001000A
:10007A00000000000000000000001FFFFFF0000069
:10008A003FFFFFF000003FFFFFF000003FFFFFF0DF
:10009A0000003E6FE4F000003EA720F000403E0B57
:1000AA0021F001F03E8320F000E03E5364F000E0CE
:1000BA003FFFFFF000003FFFFFF000003FFFFFF0AF
:1000CA0000003FFFEFF000003FFCFFF000003FFFA1
:1000DA005FF000003FEFBFF000003FFFBFF00000FD
:1000EA003F73EFF000003DDBFFF000003B7EFFF0C6
:1000FA0000000DFDFFF000001BEFFFF000006FFB9A
:10010A00FFF00000BFDFFFF000003FFFFFF000003C
:10011A003FAFFFF000003FFFFFF000003F5FFFF03E
:10012A0000003FBFFFF000003EFFFFF00000EFEFCE
:10013A00FFF00000FCFFFFF000013FFFFFF000149A
:10014A0039FFFFF000183BFFFFF0003037FFFFF0E8
:10015A00001037FFFFF000002FFFFFF000000FFF35
:10016A00FFF000001FFFFFF000003FFFFFF000104C
:10017A003FFFFFF000303FFFFFF000383FFFFFF086
:10018A0000183FFFFFF000003FFFFFF000013FFFB4
:10019A00FFF00000EFFFFFF00000EFFFFFF00000AC
:1001AA003FFFFFF000003FFFFFF000003FFFFFF0BE
:1001BA0000001FFFFFF03FFFDFFFFFF03FDFFFFF01
:1001CA00FFF03FDFFFFFFFF0308813020470308832
:1001DA00130204703089031004703089831004708C
:1001EA003000130200303020130201303BACB7EA72
:1001FA00CF703FFFFFFFFFF03FFFFFFFFFF001005F
:10020A002D4E414E00494E460000010003007A007F
:10021A008C0100037C000100A60808020000F89483
:10022A00EE27EFBBF1E0F5BFE5BF8DE0A2E0BB270B
:10023A00ED938A95E9F780E098E0A0E0B1E0ED93CC
:10024A000197E9F7E4E1F2E085919591009761F071
:10025A00A591B59105901590BF01F00105900D92F9
:10026A000197E1F7FB01F0CFE0E0EEBBEFEFEDBF66
:10027A00E8E0EEBFC0E0D3E00C9492041A931A2F80
:10028A00E0917A00E068E0937A00E0917C00E06C0B
:10029A00E0937C00ACE7B0E0EC91EC93E12BEC93BB
:1002AA00E0917A00E760E0937A00AFC01A930A936C
:1002BA0000E010E0E0917A00E064E0937A00E091D7
:1002CA007A00E074E1F7009178001127E091790053
:1002DA00FE2FE0E00E2B1F2BF8018EC0BA93AA93D3
:1002EA002497EC81FD8166277727A7D5AEEAB7E484
:1002FA0081EE9DE3CFD52FD569D527C1E0E0E09304
:10030A00C000E8E9E093C100E6E0E093C200E0E063
:10031A00E093C500E7E6E093C40008950A921A92B2
:10032A00FA926A937A938A939A93AA93BA93EA93DC
:10033A00FA93EFB7EA934090C600E1E03E2EE7E475
:10034A00E41579F49CD3A0E099DFB0DFE883F98360
:10035A00A881B981C3DF5E2E6F2E5092C600442455
:10036A002296E991EFBFF991E991B991A9919991F1
:10037A00899179916991F990199009901895E0E01D
:10038A00E093B900E8E4E093B80008951A930A9359
:10039A000A2FE4EAE093BC00E091BC00E078E1F3C4
:1003AA0073D3183011F0103109F402C0E1E024C00F
:1003BA0070D3E091BC00E078E1F366D3183111F014
:1003CA00103409F402C0E1E017C015C0E4E9E09373
:1003DA00BC00E091BC00E071E1F708951A930A931A
:1003EA000A2F57D3E091BC00E078E1F34DD31832DD
:1003FA0011F0E1E001C0E0E00991199108951A9322
:10040A001A2F4DD3A12FEADFE1DF199108954BD3BB
:10041A0011E045D3F90121503040309761F0103294
:10042A0018F0D4DF3CD311E0DA014F5F5F4FAC9193
:10043A00D5DF1F5FEFCFCADF0BC23AD3AEEADFDFE9
:10044A00A5EDDDDFA0E8DBDFA8EAD9DFAFE3D7DF80
:10045A00A3EDD5DFA0E0D3DFA0E4D1DFADE8CFDFA5
:10046A00A4E1CDDFA0E2CBDFA0E0C9DFA1EAC7DFCC
:10047A00A8ECC5DFAAEDC3DFA2E1C1DFA1E8BFDFB7
:10048A00AFECBDDFA9EDBBDFA1EFB9DFABEDB7DFA5
:10049A00A0E4B5DFA4EAB3DFA6EAB1DFAEE2AFDFDC
:1004AA00AFEAADDF08952597E2E2E883E0E0E98369
:1004BA00EFEFEA83E1E2EB83E0E0EC83E4D300E0F0
:1004CA0014E026EA34E051E0FE013696FA93EA9304
:1004DA00A5E0B0E09CDFAFE792DFF3D2F80101506C
:1004EA001040309761F0503218F070DFEAD251E0D4
:1004FA00D9012F5F3F4FAC9171DF5F5FEFCF66DFAE
:10050A00C9D32B960895C1D38D012C813D81332304
:10051A0052F02038E0E03E0734F4112322F0003490
:10052A00E0E01E070CF010C0D0D2D1D3CED3E20F38
:10053A00F31FEA55FB4FBF011080E02FE770A1E0DF
:10054A00BCD3E129DB01EC93A7D326960895B0D258
:10055A00089599D3AD01EE81FF8133968F01EE8123
:10056A00FF8136960E171F076CF49A01B3D23CF43A
:10057A001A930A93D901C7DF2F5F3F4FF7CF0F5F57
:10058A001F4FEDCF65C18FD28901A9D22CF4ACD20D
:10059A00B5D20F5F1F4FF9CFF90132968F01B3D24F
:1005AA0024F4B6D20F5F1F4FFACFB6D2C5D2C9D242
:1005BA00D3D2D2D21596A7DFF9013296D5D247C146
:1005CA0072D289018CD224F48FD20F5F1F4FFACFD7
:1005DA00F90132968F0197D22CF49AD28FD20F5FFB
:1005EA001F4FF9CF99D23696BFD2C3D28CDFF90109
:1005FA00A3D2A7D2C2D2C6D22AC145D3AD019A018B
:10060A0069D24CF4C4D216967EDFC1D215967BDF2E
:10061A002F5F3F4FF5CFEE81FF8130968F01EE813C
:10062A00FF8138960E171F074CF4FA013696B4D29A
:10063A00FA013596B1D20F5F1F4FF1CFEE81FF81DC
:10064A0031968F01EE81FF8135960E171F0784F4CC
:10065A00AE81BF81F801EA1BFB0BA5E0B0E080D3B5
:10066A00EA1BFB0BE40FF51F97D20F5F1F4FEACF70
:10067A00EFC019D2890133D224F492D20F5F1F4FEF
:10068A00FACFF90132968F013ED22CF441D292D29E
:10069A000F5F1F4FF9CF94D2129635DF91D296D2BF
:1006AA00309670D2A5D2A8D2ABD2AED2B1D2B4D241
:1006BA0060D2CDC0F8D1890112D224F471D20F5F71
:1006CA001F4FFACFF90132968F011DD22CF420D296
:1006DA0071D20F5F1F4FF9CF73D2129614DF70D207
:1006EA0075D236964FD294D297D243D20CDF3A9330
:1006FA002A93DA0195D2ABC0D6D18901F0D124F47C
:10070A0007D20F5F1F4FFACF5BD2119690D2119684
:10071A0095D2139685D21196F6DEF9010DD214966A
:10072A00F2DEF90109D21596EEDEF9013596FA9351
:10073A00EA93DA0122D218D281D212967FD2139684
:10074A0076D2129674D21396DEDEF901F5D1169698
:10075A00DADEF901F1D1179678D2169676D2179683
:10076A0076C0A1D18901BBD124F41AD20F5F1F4FE1
:10077A00FACFF90132968F01C6D17CF4C9D11A9306
:10078A000A93DA011396BFDE1A930A93DA011496D2
:10079A00BADEB4D10F5F1F4FEFCF12D2129640D2FA
:1007AA0012963ED2139624D227D22AD22DD230D2F2
:1007BA00E0D144D2129642D2139639D2129647C049
:1007CA0072D189018CD124F4EBD10F5F1F4FFACF7C
:1007DA00F90132968F0197D12CF49AD1EBD10F5FA0
:1007EA001F4FF9CFEDD112968EDEEAD1139618D2A9
:1007FA00129616D213961CC056D1890170D124F4D0
:10080A00CFD10F5F1F4FFACFF90132968F017BD1FB
:10081A002CF47ED173D10F5F1F4FF9CFD1D112962D
:10082A0072DECED1D3D13096ADD1E2D1E5D1E8D1C5
:10083A006ADEF9013696A6D1EBD1EED19AD1FED174
:10084A001296FCD11396F3D11296F1D113965BDE70
:10085A0021D228960895BA93AA9311D114D2AA85BF
:10086A00BB851796E8E0F0E05ED2AF0120E030E009
:10087A00E885F9852E173F07A4F500E010E0EA8520
:10088A00FB850E171F0754F5E02FE77029F0EE815C
:10089A00FF81EE0FFF1F0DC0FA01D9012CD2BF0153
:1008AA0014D1E60FF71FAC85BD85AE0FBF1FEC91C3
:1008BA00F0E0EE83FF83EE81E07869F0F801A88921
:1008CA00B989EA0FFB1FFA93EA93F901A889B98952
:1008DA00AE0FBF1F18DE0F5F1F4FD1CF2F5F3F4FE5
:1008EA00C7CFD8D162960895CED18D012E813F818E
:1008FA0048855985E0E8F0E0E01BF10BADD1E0E472
:10090A00F0E0E21BF30BA8D15A934A931A930A9385
:10091A00D901A1DFBFD12A9608952597E1E0F4E035
:10092A00E0939204F0939304A4E9B4E0EEEAF2E0CF
:10093A00ED93FC93A6E9B4E0E8ECF2E0ED93FC93C6
:10094A00A8E9B4E0E5EEF2E0ED93FC93AAE9B4E09D
:10095A00E2E0F3E0ED93FC93ACE9B4E0EFE5F3E019
:10096A00ED93FC93AEE9B4E0EEE3F3E0ED93FC9390
:10097A00A0EAB4E0E1E8F3E0ED93FC93A2EAB4E084
:10098A00E6EBF3E0ED93FC93A4EAB4E0E5EEF3E0E2
:10099A00ED93FC93B3DC7894F2DC4FDDD8DD3320A1
:1009AA0061F4E0E0F3E0FA93EA93E3E4F0E0FA9327
:1009BA00EA93ADE2B0E098DF21C0FE01FA93EA9330
:1009CA00E0E0EA93A5E0B0E01CD06A925A92DE0118
:1009DA00129627D0E88147D1FF93EF934FD1A4E134
:1009EA00B0E0EF91FF910995E9813DD1FF93EF9333
:1009FA0045D1AEE1B0E0EF91FF91099554DDCECF3C
:100A0A00FFCFBA93AA93B981A881109631F0FC81DD
:100A1A00EB816A8161931197E9F7EB81FC81259655
:100A2A000895BA93AA93A991B991E991F991309647
:100A3A002AF4E095F09531966DE26D93E89480E1A1
:100A4A0097E20DD088EE93E00AD084E6992707D082
:100A5A008AE005D06E2F10D066276C93089566271A
:100A6A00E817F90720F06395E81BF90BC9F7662325
:100A7A0011F416F008956894605D6D9308952297B5
:100A8A00E0E0E883E9830895E091B900E87F1E2F4A
:100A9A0008950093BB00E4E8E093BC000895A8E73A
:100AAA0075DCA0E09BCCEFD09D014E815F8108955B
:100ABA00E6EAF4E0FA93EA93E0E0EA93A0E0B4E02D
:100ACA00A0CFA8E763DCA0E489CCD801E8E0F0E095
:100ADA002AD10895FA0138962E173F070895F90189
:100AEA0038960E171F0708951A930A93DA0111967A
:100AFA000ADD1A930A93DA01169605CD1A930A9318
:100B0A00DA01179600CDF90136960E171F070895D8
:100B1A001A930A93DA01F7CCF9013696FA93EA9313
:100B2A00DA011296F0DCF9013796FA93EA93DA01C0
:100B3A001296E9DCF90108953496FA93EA93DA01F8
:100B4A0008951396E0DCF9013596FA93EA93DA01EF
:100B5A001396D9DCF901F0CF1496D5DCF901339656
:100B6A00FA93EA93DA010895FA93EA93DA01159669
:100B7A000895C9DCF9013796F7CF1496C4DCF90158
:100B8A0035960895FA93EA93DA01149608953A93FA
:100B9A002A93A885B9850895FA93EA93D801B3CC24
:100BAA001A930A93DA011696AEDC1A930A93DA01BB
:100BBA001196A9CC1A930A93DA011396A4DC9ECF54
:100BCA00F9013096FA93EA93DA01089513969BDCB9
:100BDA00F9013196FA93EA93DA01129694DCF90153
:100BEA003196FA93EA93DA0113968DDCF9010895A6
:100BFA008ADCF9013096B8CF86DCF9013196C2CF8A
:100C0A0082DCF9013196B0CF7EDCF9013696BACF93
:100C1A007ADCF9013696A8CF76DCF9013796B2CF9D
:100C2A0072DCF9013196FA93EA93DA0108956BDCE2
:100C3A00F9013796FA93EA93DA01089564DCF90127
:100C4A003696FA93EA93DA0108955DDCF901339650
:100C5A00FA93EA93DA010895DF01E2E0F0E063D063
:100C6A00FA93EA930895F0E0F097A2E9B4E0EE0F60
:100C7A00FF1FAE0FBF1FED91FD910895EEE1F0E069
:100C8A00FA93EA9308955A934A933A932A931A93B2
:100C9A000A9308955D814C813B812A8119810881DB
:100CAA000895F195E195F0400895F0956095709555
:100CBA00E195FF4F6F4F7F4F0895EE230E2EEA2FD7
:100CCA0019F0EE0F0A94E9F70895EE0FFF1FEE0FE1
:100CDA00FF1FEE0FFF1FEE0FFF1F08956F2F660F06
:100CEA00660B762F0895FA9FF02DEB9FF00DEA9F81
:100CFA00E02DF10D08951CD0F6DF0EF4D2DF089531
:100D0A000024112490E1AA0FBB1F001C111C0E1A0B
:100D1A001F0A18F40E0E1F1E01C0A1609A9599F7BA
:100D2A00FD01D001089504D0EBDF0EF4BADF089577
:100D3A00E894F7FF02C0B5DF6894B7FF06C0B19523
:100D4A00A195B04000F8039400FA0895E881F9816A
:100D5A006A817B810895E883F9836A837B83089596
:100D6A001B2EBF2FF12D1A2EAE2FE12D08955523DC
:100D7A0042F4503811F4E0FF04C03196691F791F1C
:100D8A006BF050E8572711F45F9373C05F3F31F05F
:100D9A00660F000C57956795752F08955F9300208D
:100DAA000AF072C06BC050E8192E1522880F991FDD
:100DBA009527550F879550E8072E0522660F771F4E
:100DCA007527550F67950895689401C0E8945F9355
:100DDA00F2DF703818F07F3F08F44BC056E1571B1A
:100DEA00AAF4519558300EF4593030F0EFEFFFEF76
:100DFA006FEF7FE777F91AC077275523B9F0EE0F1F
:100E0A00FF1F661F771F5A95D1F710C077275830F2
:100E1A0028F0EF2FF62F672F5850F9CF552331F0CE
:100E2A0076956795F795E7955A95D1F700200AF4D4
:100E3A003CDF5F910895689401C0E8943097604060
:100E4A007040B1F0002426F0772312F400942DDFCD
:100E5A00172E7EE1112032F07A95EE0FFF1F661FE2
:100E6A00111CF9CFEF2FF62F612D5F938ADF5F9167
:100E7A000895EE27FF27BF015F910895EFEFFFEF77
:100E8A006FE77FEF5F910895EFEFFFEF6FE77FE77F
:100E9A005F9108955F9387DF703859F3903849F36B
:100EAA0001240894791F23F424F300203AF3ECCFA9
:100EBA000F921F932F933F934F931127222799271E
:100ECA00689FA0018F9F302D410D591F6B9F300DD8
:100EDA00411D591F8E9F27D0BF9F25D06A9F23D0BF
:100EEA00BE9F1DD0AF9F1BD0AE9F110D291F391F6A
:100EFA00491F591FE32FF42F652F522F4F913F910E
:100F0A002F911F910F9066232AF0550FEE1FFF1F96
:100F1A00661F02C073954BF22ADF5F910895100D88
:100F2A00211D391F02C0200D311D491F591F089567
:00000001FF
